S01F00004F6E2044656D616E642054726166666963204C696768742E73726563E8
S11300000C942A000C9491000C9434000C94340049
S11300100C9434000C9434000C9434000C9434008C
S11300200C9434000C9434000C9434000C9434007C
S11300300C9434000C9434000C9434000C9434006C
S11300400C9434000C9434000C9434000C9434005C
S11300500C94340011241FBECFE5D8E0DEBFCDBF21
S11300600E94EA000C94C9040C94000060E081E44E
S11300700E94D70061E081E40E94D70062E081E43D
S11300800E94D70060E082E40E94D70061E082E42D
S11300900E94D70062E082E40E94D70062E084E418
S11300A00E94E6000E941A02789485B7836085BF97
S11300B08BB780648BBF089560E081E40E94DB000D
S11300C061E081E40E94DF0062E081E40E94DF00DD
S11300D062E082E40E94DF0060E082E40E94DF00CC
S11300E061E082E40E94DF0080E991E00E941D0249
S11300F061E081E40E94DB0060E081E40E94DF00B3
S113010080E991E00E941D0261E081E40E94DF0029
S113011062E081E40E94DB0080E991E00E941D021C
S113012008951F920F920FB60F9211242F933F93AD
S11301304F935F936F937F938F939F93AF93BF93EB
S1130140EF93FF9361E082E40E94E30088EB9BE07D
S11301500E941D0260E081E40E94DF0062E081E40D
S11301600E94DB0060E082E40E94DB0061E082E444
S11301700E94DF0088EB9BE00E941D0262E081E4A4
S11301800E94DF0060E082E40E94DF00FF91EF91B3
S1130190BF91AF919F918F917F916F915F914F919B
S11301A03F912F910F900FBE0F901F90189541E033
S11301B00E94EF00089541E00E946901089540E023
S11301C00E94690108950E94E301089540E00E949D
S11301D0EF0008950E9436000E945C00FDCF823437
S11301E031F118F4813439F008958334E1F1843421
S11301F009F454C0089541110CC02AB381E090E081
S113020002C0880F991F6A95E2F7809582238ABB02
S11302100895413009F05CC02AB381E090E002C047
S1130220880F991F6A95E2F7822B8ABB08954111C2
S11302300CC027B381E090E002C0880F991F6A9533
S1130240E2F78095822387BB0895413009F040C0CE
S113025027B381E090E002C0880F991F6A95E2F706
S1130260822B87BB089541110CC024B381E090E038
S113027002C0880F991F6A95E2F78095822384BB98
S11302800895413029F524B381E090E002C0880F3D
S1130290991F6A95E2F7822B84BB089541110CC023
S11302A021B381E090E002C0880F991F6A95E2F7BC
S11302B08095822381BB0895413051F421B381E0BC
S11302C090E002C0880F991F6A95E2F7822B81BBE8
S11302D00895823431F118F4813439F00895833467
S11302E0E1F1843409F454C0089541110CC02BB3D6
S11302F081E090E002C0880F991F6A95E2F780952B
S113030082238BBB0895413009F05CC02BB381E09C
S113031090E002C0880F991F6A95E2F7822B8BBB8D
S1130320089541110CC028B381E090E002C0880F09
S1130330991F6A95E2F78095822388BB089541301E
S113034009F040C028B381E090E002C0880F991FF3
S11303506A95E2F7822B88BB089541110CC025B33E
S113036081E090E002C0880F991F6A95E2F78095BA
S1130370822385BB0895413029F525B381E090E0BF
S113038002C0880F991F6A95E2F7822B85BB0895F6
S113039041110CC022B381E090E002C0880F991F84
S11303A06A95E2F78095822382BB0895413051F427
S11303B022B381E090E002C0880F991F6A95E2F7AA
S11303C0822B82BB08958234A1F018F4813431F079
S11303D008958334C9F0843411F108952BB381E076
S11303E090E002C0880F991F6A95E2F782278BBBC1
S11303F0089528B381E090E002C0880F991F6A95A0
S1130400E2F7822788BB089525B381E090E002C01B
S1130410880F991F6A95E2F7822785BB089522B356
S113042081E090E002C0880F991F6A95E2F7822765
S113043082BB089513BE12BE0895CF92DF92EF924D
S1130440FF920F931F93CF93DF9300D000D0CDB7CB
S1130450DEB78C011C821B82BC0180E090E00E940C
S1130460D6036B017C012DED34E242E652E40E9496
S113047030038823ACF4A70196016DED74E282E6A3
S113048092E40E94AC022FE632E143E85EE30E946C
S113049035030E94A70381E090E09A83898337C0E3
S11304A00833110531F481E090E09A83898360E098
S11304B02EC02DED34E242E652E4C701B6010E949B
S11304C035030E9419030E94A7037A8369832FE6E8
S11304D032E143E85EE3C701B6010E9435036B01D4
S11304E07C0169817A8180E090E00E94D6039B01BF
S11304F0AC01C701B6010E9435039B01AC0160E069
S113050070E080E893E40E94AC020E94A70362BFFB
S113051083B7846083BF0BC008B600FEFDCF88B7E5
S1130520816088BF8B819C8101969C838B832B8106
S11305303C8189819A812817390770F313BE0F9083
S11305400F900F900F90DF91CF911F910F91FF901B
S1130550EF90DF90CF9008955058BB27AA270E94B0
S1130560C4020C9477040E94690438F00E94700459
S113057020F039F49F3F19F426F40C9466040EF429
S1130580E095E7FB0C943704E92F0E94880458F3A4
S1130590BA17620773078407950720F079F4A6F564
S11305A00C94C2040EF4E0950B2EBA2FA02D0B016F
S11305B0B90190010C01CA01A0011124FF27591BA4
S11305C099F0593F50F4503E68F11A16F040A22FAA
S11305D0232F342F4427585FF3CF4695379527951B
S11305E0A795F0405395C9F77EF41F16BA0B620B1A
S11305F0730B840BBAF09150A1F0FF0FBB1F661F61
S1130600771F881FC2F70EC0BA0F621F731F841FA3
S113061048F4879577956795B795F7959E3F08F0C9
S1130620B0CF9395880F08F09927EE0F979587958B
S113063008950E94AA0490F09F3748F4911116F48B
S11306400C94C30460E070E080E89FE3089526F012
S11306501B16611D711D811D0C943D040C945804DE
S11306600E94130408F481E008950E9449030C9445
S113067077040E94700458F00E94690440F029F441
S11306805F3F29F00C94370451110C94C3040C946B
S113069066040E94880468F39923B1F3552391F307
S11306A0951B550BBB27AA2762177307840738F0DD
S11306B09F5F5F4F220F331F441FAA1FA9F335D03A
S11306C00E2E3AF0E0E832D091505040E695001CEE
S11306D0CAF72BD0FE2F29D0660F771F881FBB1FA8
S11306E0261737074807AB07B0E809F0BB0B802D86
S11306F0BF01FF2793585F4F3AF09E3F510578F0B2
S11307000C9437040C94C3045F3FE4F3983ED4F391
S1130710869577956795B795F7959F5FC9F7880F85
S1130720911D9695879597F90895E1E0660F771FD7
S1130730881FBB1F621773078407BA0720F0621B68
S1130740730B840BBA0BEE1F88F7E09508950E9493
S1130750900488F09F5798F0B92F9927B751B0F0BB
S1130760E1F0660F771F881F991F1AF0BA95C9F731
S113077014C0B13091F00E94C204B1E008950C9409
S1130780C204672F782F8827B85F39F0B93FCCF3BC
S1130790869577956795B395D9F73EF490958095AE
S11307A0709561957F4F8F4F9F4F0895E89409C0CE
S11307B097FB3EF490958095709561957F4F8F4F90
S11307C09F4F9923A9F0F92F96E9BB279395F695A6
S11307D0879577956795B795F111F8CFFAF4BB0F24
S11307E011F460FF1BC06F5F7F4F8F4F9F4F16C088
S11307F0882311F096E911C0772321F09EE8872F12
S1130800762F05C0662371F096E8862F70E060E0CD
S11308102AF09A95660F771F881FDAF7880F969546
S1130820879597F90895990F0008550FAA0BE0E8EA
S1130830FEEF16161706E807F907C0F0121613069E
S1130840E407F50798F0621B730B840B950B39F4DE
S11308500A2661F0232B242B252B21F408950A2644
S113086009F4A140A6958FEF811D811D089597F984
S11308709F6780E870E060E00895882371F477232F
S113088021F09850872B762F07C0662311F49927FF
S11308900DC09051862B70E060E02AF09A95660FA7
S11308A0771F881FDAF7880F9695879597F908952B
S11308B09F3F31F0915020F4879577956795B795D0
S11308C0880F911D9695879597F908959FEF80EC71
S11308D0089500240A9416161706180609060895A2
S11308E000240A9412161306140605060895092E08
S11308F00394000C11F4882352F0BB0F40F4BF2B77
S113090011F460FF04C06F5F7F4F8F4F9F4F0895B6
S113091057FD9058440F551F59F05F3F71F04795AC
S1130920880F97FB991F61F09F3F79F08795089591
S1130930121613061406551FF2CF4695F1DF08C0B0
S1130940161617061806991FF1CF869571056105CD
S1130950089408950E949004A0F0BEE7B91788F4A3
S1130960BB279F3860F41616B11D672F782F882790
S1130970985FF7CF869577956795B11D93959639CE
S1130980C8F30895E894BB2766277727CB0197F926
S10909900895F894FFCF66
S9030000FC
